{
  "contractName": "Dog",
  "abi": [
    {
      "inputs": [
        {
          "internalType": "string",
          "name": "_name",
          "type": "string"
        }
      ],
      "stateMutability": "nonpayable",
      "type": "constructor"
    },
    {
      "inputs": [
        {
          "internalType": "string",
          "name": "str1",
          "type": "string"
        },
        {
          "internalType": "string",
          "name": "str2",
          "type": "string"
        }
      ],
      "name": "compare",
      "outputs": [
        {
          "internalType": "bool",
          "name": "",
          "type": "bool"
        }
      ],
      "stateMutability": "pure",
      "type": "function",
      "constant": true
    },
    {
      "inputs": [],
      "name": "sleep",
      "outputs": [
        {
          "internalType": "string",
          "name": "",
          "type": "string"
        }
      ],
      "stateMutability": "pure",
      "type": "function",
      "constant": true
    },
    {
      "inputs": [
        {
          "internalType": "string",
          "name": "_food",
          "type": "string"
        }
      ],
      "name": "eat",
      "outputs": [
        {
          "internalType": "string",
          "name": "",
          "type": "string"
        }
      ],
      "stateMutability": "pure",
      "type": "function",
      "constant": true
    },
    {
      "inputs": [],
      "name": "speak",
      "outputs": [
        {
          "internalType": "string",
          "name": "",
          "type": "string"
        }
      ],
      "stateMutability": "pure",
      "type": "function",
      "constant": true
    },
    {
      "inputs": [],
      "name": "getName",
      "outputs": [
        {
          "internalType": "string",
          "name": "",
          "type": "string"
        }
      ],
      "stateMutability": "view",
      "type": "function",
      "constant": true
    }
  ],
  "bytecode": "0x60806040523480156200001157600080fd5b5060405162000e8238038062000e828339818101604052810190620000379190620001e7565b80806000908051906020019062000050929190620000c5565b50506040516020016200006390620002f7565b6040516020818303038152906040528051906020012060016040516020016200008d9190620002de565b6040516020818303038152906040528051906020012050508060039080519060200190620000bd929190620000c5565b5050620004c7565b828054620000d390620003c3565b90600052602060002090601f016020900481019282620000f7576000855562000143565b82601f106200011257805160ff191683800117855562000143565b8280016001018555821562000143579182015b828111156200014257825182559160200191906001019062000125565b5b50905062000152919062000156565b5090565b5b808211156200017157600081600090555060010162000157565b5090565b60006200018c620001868462000337565b6200030e565b905082815260208101848484011115620001a557600080fd5b620001b28482856200038d565b509392505050565b600082601f830112620001cc57600080fd5b8151620001de84826020860162000175565b91505092915050565b600060208284031215620001fa57600080fd5b600082015167ffffffffffffffff8111156200021557600080fd5b6200022384828501620001ba565b91505092915050565b600081546200023b81620003c3565b62000247818662000382565b945060018216600081146200026557600181146200027757620002ae565b60ff19831686528186019350620002ae565b62000282856200036d565b60005b83811015620002a65781548189015260018201915060208101905062000285565b838801955050505b50505092915050565b6000620002c660098362000382565b9150620002d3826200049e565b600982019050919050565b6000620002ec82846200022c565b915081905092915050565b60006200030482620002b7565b9150819050919050565b60006200031a6200032d565b9050620003288282620003f9565b919050565b6000604051905090565b600067ffffffffffffffff8211156200035557620003546200045e565b5b62000360826200048d565b9050602081019050919050565b60008190508160005260206000209050919050565b600081905092915050565b60005b83811015620003ad57808201518184015260208101905062000390565b83811115620003bd576000848401525b50505050565b60006002820490506001821680620003dc57607f821691505b60208210811415620003f357620003f26200042f565b5b50919050565b62000404826200048d565b810181811067ffffffffffffffff821117156200042657620004256200045e565b5b80604052505050565b7f4e487b7100000000000000000000000000000000000000000000000000000000600052602260045260246000fd5b7f4e487b7100000000000000000000000000000000000000000000000000000000600052604160045260246000fd5b6000601f19601f8301169050919050565b7f63686f636f6c6174650000000000000000000000000000000000000000000000600082015250565b6109ab80620004d76000396000f3fe608060405234801561001057600080fd5b50600436106100575760003560e01c8063133a473e1461005c57806317d7de7c1461007a5780633a96fdd71461009857806350d85315146100c8578063728d9b74146100e6575b600080fd5b610064610116565b6040516100719190610724565b60405180910390f35b610082610153565b60405161008f9190610724565b60405180910390f35b6100b260048036038101906100ad91906105c7565b6101e5565b6040516100bf9190610709565b60405180910390f35b6100d061023e565b6040516100dd9190610724565b60405180910390f35b61010060048036038101906100fb9190610582565b61027b565b60405161010d9190610724565b60405180910390f35b60606040518060400160405280600a81526020017f5a7a7a7a7a7a7a7a7a7a00000000000000000000000000000000000000000000815250905090565b60606003805461016290610851565b80601f016020809104026020016040519081016040528092919081815260200182805461018e90610851565b80156101db5780601f106101b0576101008083540402835291602001916101db565b820191906000526020600020905b8154815290600101906020018083116101be57829003601f168201915b5050505050905090565b6000816040516020016101f891906106f2565b604051602081830303815290604052805190602001208360405160200161021f91906106f2565b6040516020818303038152906040528051906020012014905092915050565b60606040518060400160405280600481526020017f576f6f6600000000000000000000000000000000000000000000000000000000815250905090565b606061030083838080601f016020809104026020016040519081016040528093929190818152602001838380828437600081840152601f19601f820116905080830192505050505050506040518060400160405280600981526020017f63686f636f6c61746500000000000000000000000000000000000000000000008152506101e5565b15610340576040517f08c379a000000000000000000000000000000000000000000000000000000000815260040161033790610746565b60405180910390fd5b6103c383838080601f016020809104026020016040519081016040528093929190818152602001838380828437600081840152601f19601f820116905080830192505050505050506040518060400160405280600481526020017f6d656174000000000000000000000000000000000000000000000000000000008152506101e5565b8061044d575061044c83838080601f016020809104026020016040519081016040528093929190818152602001838380828437600081840152601f19601f820116905080830192505050505050506040518060400160405280600581526020017f706c616e740000000000000000000000000000000000000000000000000000008152506101e5565b5b1561048f576040518060400160405280600881526020017f446f67206561747300000000000000000000000000000000000000000000000081525090506104ca565b6040517f08c379a00000000000000000000000000000000000000000000000000000000081526004016104c190610766565b60405180910390fd5b92915050565b60006104e36104de846107ab565b610786565b9050828152602081018484840111156104fb57600080fd5b61050684828561080f565b509392505050565b60008083601f84011261052057600080fd5b8235905067ffffffffffffffff81111561053957600080fd5b60208301915083600182028301111561055157600080fd5b9250929050565b600082601f83011261056957600080fd5b81356105798482602086016104d0565b91505092915050565b6000806020838503121561059557600080fd5b600083013567ffffffffffffffff8111156105af57600080fd5b6105bb8582860161050e565b92509250509250929050565b600080604083850312156105da57600080fd5b600083013567ffffffffffffffff8111156105f457600080fd5b61060085828601610558565b925050602083013567ffffffffffffffff81111561061d57600080fd5b61062985828601610558565b9150509250929050565b61063c81610803565b82525050565b600061064d826107dc565b61065781856107e7565b935061066781856020860161081e565b61067081610912565b840191505092915050565b6000610686826107dc565b61069081856107f8565b93506106a081856020860161081e565b80840191505092915050565b60006106b96019836107e7565b91506106c482610923565b602082019050919050565b60006106dc6014836107e7565b91506106e78261094c565b602082019050919050565b60006106fe828461067b565b915081905092915050565b600060208201905061071e6000830184610633565b92915050565b6000602082019050818103600083015261073e8184610642565b905092915050565b6000602082019050818103600083015261075f816106ac565b9050919050565b6000602082019050818103600083015261077f816106cf565b9050919050565b60006107906107a1565b905061079c8282610883565b919050565b6000604051905090565b600067ffffffffffffffff8211156107c6576107c56108e3565b5b6107cf82610912565b9050602081019050919050565b600081519050919050565b600082825260208201905092915050565b600081905092915050565b60008115159050919050565b82818337600083830152505050565b60005b8381101561083c578082015181840152602081019050610821565b8381111561084b576000848401525b50505050565b6000600282049050600182168061086957607f821691505b6020821081141561087d5761087c6108b4565b5b50919050565b61088c82610912565b810181811067ffffffffffffffff821117156108ab576108aa6108e3565b5b80604052505050565b7f4e487b7100000000000000000000000000000000000000000000000000000000600052602260045260246000fd5b7f4e487b7100000000000000000000000000000000000000000000000000000000600052604160045260246000fd5b6000601f19601f8301169050919050565b7f446f67732063616e6e6f74206561742063686f636f6c61746500000000000000600082015250565b7f446f67732063616e6e6f7420656174207468697300000000000000000000000060008201525056fea2646970667358221220df9a97347e36e33516cb087b827ea6091beda184e5c392ea1a87d04c31c8c18e64736f6c63430008020033",
  "immutableReferences": {},
  "source": "pragma solidity >0.4.22<0.9.0;\r\n\r\n\r\n    \r\n\r\n\r\nabstract contract Animal{\r\n    \r\n    string name;\r\n    string canEat;\r\n    bool expression;\r\n\r\n    constructor(string memory _name){\r\n        name = _name;\r\n    }\r\n\r\n    function compare(string memory str1, string memory str2) public pure returns(bool){\r\n        return keccak256(abi.encodePacked(str1)) == keccak256(abi.encodePacked(str2));\r\n    }\r\n\r\n    function eat(string calldata _food) virtual view public returns(string memory){\r\n        return \"Animal eats\";\r\n    }\r\n\r\n    function sleep() pure public returns(string memory){\r\n        return \"Zzzzzzzzzz\";\r\n    }\r\n\r\n    function speak() virtual view public returns(string memory){\r\n        return \"Animal speaks\";\r\n    }\r\n    modifier eatsPlant{\r\n        canEat = \"plant\";\r\n        _;\r\n    }\r\n    modifier eatsMeat{\r\n        canEat = \"meat\";\r\n        _;\r\n    }\r\n    modifier cantEatChocolate{\r\n        keccak256(abi.encodePacked(canEat)) != keccak256(abi.encodePacked(\"chocolate\"));\r\n        _;\r\n    }\r\n}\r\n\r\nabstract contract Herbivore is Animal {\r\n\r\n\r\n    function eat(string calldata _food) override virtual view public returns(string memory) {\r\n        require(compare(_food,canEat),\"Herbivore cannot eat this\");\r\n        return \"Nom-Nom\";\r\n    }\r\n    \r\n}\r\n\r\nabstract contract Carnivore is Animal{\r\n\r\n    function eat(string calldata _food) override view public returns(string memory){\r\n        require(compare(_food,canEat), \"Carnivore cannot eat this\");\r\n        return \"Ararararar\";\r\n    }\r\n}\r\n\r\nabstract contract Omnivore is Animal{\r\n\r\n    function eat(string calldata _food) override virtual view public returns(string memory){\r\n        return \"I will eat it\";\r\n    }\r\n}\r\n\r\ncontract Horse is Herbivore{\r\n    string horseName;\r\n    constructor(string memory _name) Animal(_name) eatsPlant{\r\n        horseName = _name;\r\n    }\r\n\r\n    function speak() override pure public returns(string memory){\r\n        return \"Ihohohoho\";\r\n    }\r\n    function getName() view public returns(string memory _name){\r\n        return horseName;\r\n    }\r\n}\r\n\r\ncontract Cow is Herbivore{\r\n\r\n    constructor(string memory _name) Animal(_name)eatsPlant{\r\n    }\r\n\r\n    function speak() override pure public returns(string memory){\r\n        return \"Mooooooow\";\r\n    }\r\n}\r\n\r\ncontract Dog is Omnivore{\r\n    string dogName;\r\n    constructor(string memory _name) Animal(_name) cantEatChocolate{\r\n        dogName = _name;\r\n    }\r\n\r\n    function eat(string calldata _food) pure override public returns(string memory){\r\n        require(!compare(_food,\"chocolate\"),\"Dogs cannot eat chocolate\");\r\n        if(compare(_food,\"meat\") || compare(_food,\"plant\")){\r\n            return \"Dog eats\";\r\n        }\r\n        revert(\"Dogs cannot eat this\");\r\n    }\r\n\r\n    function speak() override pure public returns(string memory){\r\n        return \"Woof\";\r\n    }\r\n\r\n    function getName() view public returns(string memory){\r\n        return dogName;\r\n    }\r\n}\r\n\r\ncontract Pig is Omnivore{\r\n\r\n    constructor(string memory _name) Animal(_name){\r\n    }\r\n\r\n    function speak() override pure public returns(string memory){\r\n        return \"Oink-oink\";\r\n    }\r\n}\r\n\r\ncontract Wolf is Carnivore{\r\n    constructor (string memory _name) Animal(_name)eatsMeat{\r\n    }\r\n\r\n    function speak() override pure public returns(string memory){\r\n        return \"Awooooo\";\r\n    }\r\n}\r\n\r\ncontract Farmer{\r\n\r\n    address[] public animals;\r\n\r\n    function addAnimal(address animalAddress) public {\r\n        animals.push(animalAddress);\r\n    }\r\n\r\n    function getAnimal(uint256 index) view public returns (Animal){\r\n        return Animal(animals[index]);\r\n    }\r\n\r\n    function feedByIndex(uint256 index, string calldata food) view public returns(string memory){\r\n        return getAnimal(index).eat(food);\r\n    }\r\n\r\n    function callByIndex(uint256 index) view public returns(string memory){\r\n        return getAnimal(index).speak();\r\n    }\r\n\r\n    function feedByAddress(address animal, string calldata food) view public returns(string memory){\r\n        return Animal(animal).eat(food);\r\n    }\r\n\r\n    function callByAddress(address animal) view public returns(string memory){\r\n        return Animal(animal).speak();\r\n    }\r\n}\r\n\r\n",
  "sourcePath": "C:\\Users\\yarou\\Desktop\\ \\Truffle\\contracts\\AllContracts.sol",
  "compiler": {
    "name": "solc",
    "version": "0.8.2+commit.661d1103.Emscripten.clang"
  },
  "schemaVersion": "3.4.16",
  "updatedAt": "2023-10-22T14:45:06.327Z",
  "networkType": "ethereum",
  "devdoc": {
    "kind": "dev",
    "methods": {},
    "version": 1
  },
  "userdoc": {
    "kind": "user",
    "methods": {},
    "version": 1
  }
}