{
  "contractName": "Farmer",
  "abi": [
    {
      "inputs": [
        {
          "internalType": "uint256",
          "name": "",
          "type": "uint256"
        }
      ],
      "name": "animals",
      "outputs": [
        {
          "internalType": "address",
          "name": "",
          "type": "address"
        }
      ],
      "stateMutability": "view",
      "type": "function",
      "constant": true
    },
    {
      "inputs": [
        {
          "internalType": "address",
          "name": "animalAddress",
          "type": "address"
        }
      ],
      "name": "addAnimal",
      "outputs": [],
      "stateMutability": "nonpayable",
      "type": "function"
    },
    {
      "inputs": [
        {
          "internalType": "uint256",
          "name": "index",
          "type": "uint256"
        }
      ],
      "name": "getAnimal",
      "outputs": [
        {
          "internalType": "contract Animal",
          "name": "",
          "type": "address"
        }
      ],
      "stateMutability": "view",
      "type": "function",
      "constant": true
    },
    {
      "inputs": [
        {
          "internalType": "uint256",
          "name": "index",
          "type": "uint256"
        },
        {
          "internalType": "string",
          "name": "food",
          "type": "string"
        }
      ],
      "name": "feedByIndex",
      "outputs": [
        {
          "internalType": "string",
          "name": "",
          "type": "string"
        }
      ],
      "stateMutability": "view",
      "type": "function",
      "constant": true
    },
    {
      "inputs": [
        {
          "internalType": "uint256",
          "name": "index",
          "type": "uint256"
        }
      ],
      "name": "callByIndex",
      "outputs": [
        {
          "internalType": "string",
          "name": "",
          "type": "string"
        }
      ],
      "stateMutability": "view",
      "type": "function",
      "constant": true
    },
    {
      "inputs": [
        {
          "internalType": "address",
          "name": "animal",
          "type": "address"
        },
        {
          "internalType": "string",
          "name": "food",
          "type": "string"
        }
      ],
      "name": "feedByAddress",
      "outputs": [
        {
          "internalType": "string",
          "name": "",
          "type": "string"
        }
      ],
      "stateMutability": "view",
      "type": "function",
      "constant": true
    },
    {
      "inputs": [
        {
          "internalType": "address",
          "name": "animal",
          "type": "address"
        }
      ],
      "name": "callByAddress",
      "outputs": [
        {
          "internalType": "string",
          "name": "",
          "type": "string"
        }
      ],
      "stateMutability": "view",
      "type": "function",
      "constant": true
    }
  ],
  "bytecode": "0x608060405234801561001057600080fd5b50610a36806100206000396000f3fe608060405234801561001057600080fd5b506004361061007d5760003560e01c806345d3cc811161005b57806345d3cc81146100fe578063998dd3ca1461012e5780639d26373c1461015e578063b53d58201461018e5761007d565b80631436163e146100825780632261a7761461009e5780633c735ee6146100ce575b600080fd5b61009c6004803603810190610097919061060a565b6101be565b005b6100b860048036038101906100b39190610633565b610224565b6040516100c5919061082b565b60405180910390f35b6100e860048036038101906100e391906106f5565b6102bf565b6040516100f5919061082b565b60405180910390f35b610118600480360381019061011391906106cc565b610362565b60405161012591906107ec565b60405180910390f35b610148600480360381019061014391906106cc565b6103cf565b60405161015591906107d1565b60405180910390f35b610178600480360381019061017391906106cc565b61040e565b604051610185919061082b565b60405180910390f35b6101a860048036038101906101a3919061060a565b6104a2565b6040516101b5919061082b565b60405180910390f35b6000819080600181540180825580915050600190039060005260206000200160009091909190916101000a81548173ffffffffffffffffffffffffffffffffffffffff021916908373ffffffffffffffffffffffffffffffffffffffff16021790555050565b60608373ffffffffffffffffffffffffffffffffffffffff1663728d9b7484846040518363ffffffff1660e01b8152600401610261929190610807565b60006040518083038186803b15801561027957600080fd5b505afa15801561028d573d6000803e3d6000fd5b505050506040513d6000823e3d601f19601f820116820180604052508101906102b6919061068b565b90509392505050565b60606102ca84610362565b73ffffffffffffffffffffffffffffffffffffffff1663728d9b7484846040518363ffffffff1660e01b8152600401610304929190610807565b60006040518083038186803b15801561031c57600080fd5b505afa158015610330573d6000803e3d6000fd5b505050506040513d6000823e3d601f19601f82011682018060405250810190610359919061068b565b90509392505050565b600080828154811061039d577f4e487b7100000000000000000000000000000000000000000000000000000000600052603260045260246000fd5b9060005260206000200160009054906101000a900473ffffffffffffffffffffffffffffffffffffffff169050919050565b600081815481106103df57600080fd5b906000526020600020016000915054906101000a900473ffffffffffffffffffffffffffffffffffffffff1681565b606061041982610362565b73ffffffffffffffffffffffffffffffffffffffff166350d853156040518163ffffffff1660e01b815260040160006040518083038186803b15801561045e57600080fd5b505afa158015610472573d6000803e3d6000fd5b505050506040513d6000823e3d601f19601f8201168201806040525081019061049b919061068b565b9050919050565b60608173ffffffffffffffffffffffffffffffffffffffff166350d853156040518163ffffffff1660e01b815260040160006040518083038186803b1580156104ea57600080fd5b505afa1580156104fe573d6000803e3d6000fd5b505050506040513d6000823e3d601f19601f82011682018060405250810190610527919061068b565b9050919050565b600061054161053c84610872565b61084d565b90508281526020810184848401111561055957600080fd5b61056484828561092e565b509392505050565b60008135905061057b816109d2565b92915050565b60008083601f84011261059357600080fd5b8235905067ffffffffffffffff8111156105ac57600080fd5b6020830191508360018202830111156105c457600080fd5b9250929050565b600082601f8301126105dc57600080fd5b81516105ec84826020860161052e565b91505092915050565b600081359050610604816109e9565b92915050565b60006020828403121561061c57600080fd5b600061062a8482850161056c565b91505092915050565b60008060006040848603121561064857600080fd5b60006106568682870161056c565b935050602084013567ffffffffffffffff81111561067357600080fd5b61067f86828701610581565b92509250509250925092565b60006020828403121561069d57600080fd5b600082015167ffffffffffffffff8111156106b757600080fd5b6106c3848285016105cb565b91505092915050565b6000602082840312156106de57600080fd5b60006106ec848285016105f5565b91505092915050565b60008060006040848603121561070a57600080fd5b6000610718868287016105f5565b935050602084013567ffffffffffffffff81111561073557600080fd5b61074186828701610581565b92509250509250925092565b610756816108bf565b82525050565b610765816108fb565b82525050565b600061077783856108ae565b935061078483858461091f565b61078d836109c1565b840190509392505050565b60006107a3826108a3565b6107ad81856108ae565b93506107bd81856020860161092e565b6107c6816109c1565b840191505092915050565b60006020820190506107e6600083018461074d565b92915050565b6000602082019050610801600083018461075c565b92915050565b6000602082019050818103600083015261082281848661076b565b90509392505050565b600060208201905081810360008301526108458184610798565b905092915050565b6000610857610868565b90506108638282610961565b919050565b6000604051905090565b600067ffffffffffffffff82111561088d5761088c610992565b5b610896826109c1565b9050602081019050919050565b600081519050919050565b600082825260208201905092915050565b60006108ca826108d1565b9050919050565b600073ffffffffffffffffffffffffffffffffffffffff82169050919050565b6000819050919050565b60006109068261090d565b9050919050565b6000610918826108d1565b9050919050565b82818337600083830152505050565b60005b8381101561094c578082015181840152602081019050610931565b8381111561095b576000848401525b50505050565b61096a826109c1565b810181811067ffffffffffffffff8211171561098957610988610992565b5b80604052505050565b7f4e487b7100000000000000000000000000000000000000000000000000000000600052604160045260246000fd5b6000601f19601f8301169050919050565b6109db816108bf565b81146109e657600080fd5b50565b6109f2816108f1565b81146109fd57600080fd5b5056fea26469706673582212200cebe4f51398f1967e0c19402403f17e7cb99d4cd37c52450f2e8dc4f58f3f9d64736f6c63430008020033",
  "immutableReferences": {},
  "source": "pragma solidity >0.4.22<0.9.0;\r\n\r\n\r\n    \r\n\r\n\r\nabstract contract Animal{\r\n    \r\n    string name;\r\n    string canEat;\r\n    bool expression;\r\n\r\n    constructor(string memory _name){\r\n        name = _name;\r\n    }\r\n\r\n    function compare(string memory str1, string memory str2) public pure returns(bool){\r\n        return keccak256(abi.encodePacked(str1)) == keccak256(abi.encodePacked(str2));\r\n    }\r\n\r\n    function eat(string calldata _food) virtual view public returns(string memory){\r\n        return \"Animal eats\";\r\n    }\r\n\r\n    function sleep() pure public returns(string memory){\r\n        return \"Zzzzzzzzzz\";\r\n    }\r\n\r\n    function speak() virtual view public returns(string memory){\r\n        return \"Animal speaks\";\r\n    }\r\n    modifier eatsPlant{\r\n        canEat = \"plant\";\r\n        _;\r\n    }\r\n    modifier eatsMeat{\r\n        canEat = \"meat\";\r\n        _;\r\n    }\r\n    modifier cantEatChocolate{\r\n        keccak256(abi.encodePacked(canEat)) != keccak256(abi.encodePacked(\"chocolate\"));\r\n        _;\r\n    }\r\n}\r\n\r\nabstract contract Herbivore is Animal {\r\n\r\n\r\n    function eat(string calldata _food) override virtual view public returns(string memory) {\r\n        require(compare(_food,canEat),\"Herbivore cannot eat this\");\r\n        return \"Nom-Nom\";\r\n    }\r\n    \r\n}\r\n\r\nabstract contract Carnivore is Animal{\r\n\r\n    function eat(string calldata _food) override view public returns(string memory){\r\n        require(compare(_food,canEat), \"Carnivore cannot eat this\");\r\n        return \"Ararararar\";\r\n    }\r\n}\r\n\r\nabstract contract Omnivore is Animal{\r\n\r\n    function eat(string calldata _food) override virtual view public returns(string memory){\r\n        return \"I will eat it\";\r\n    }\r\n}\r\n\r\ncontract Horse is Herbivore{\r\n    string horseName;\r\n    constructor(string memory _name) Animal(_name) eatsPlant{\r\n        horseName = _name;\r\n    }\r\n\r\n    function speak() override pure public returns(string memory){\r\n        return \"Ihohohoho\";\r\n    }\r\n    function getName() view public returns(string memory _name){\r\n        return horseName;\r\n    }\r\n}\r\n\r\ncontract Cow is Herbivore{\r\n\r\n    constructor(string memory _name) Animal(_name)eatsPlant{\r\n    }\r\n\r\n    function speak() override pure public returns(string memory){\r\n        return \"Mooooooow\";\r\n    }\r\n}\r\n\r\ncontract Dog is Omnivore{\r\n    string dogName;\r\n    constructor(string memory _name) Animal(_name) cantEatChocolate{\r\n        dogName = _name;\r\n    }\r\n\r\n    function eat(string calldata _food) pure override public returns(string memory){\r\n        require(!compare(_food,\"chocolate\"),\"Dogs cannot eat chocolate\");\r\n        if(compare(_food,\"meat\") || compare(_food,\"plant\")){\r\n            return \"Dog eats\";\r\n        }\r\n        revert(\"Dogs cannot eat this\");\r\n    }\r\n\r\n    function speak() override pure public returns(string memory){\r\n        return \"Woof\";\r\n    }\r\n\r\n    function getName() view public returns(string memory){\r\n        return dogName;\r\n    }\r\n}\r\n\r\ncontract Pig is Omnivore{\r\n\r\n    constructor(string memory _name) Animal(_name){\r\n    }\r\n\r\n    function speak() override pure public returns(string memory){\r\n        return \"Oink-oink\";\r\n    }\r\n}\r\n\r\ncontract Wolf is Carnivore{\r\n    constructor (string memory _name) Animal(_name)eatsMeat{\r\n    }\r\n\r\n    function speak() override pure public returns(string memory){\r\n        return \"Awooooo\";\r\n    }\r\n}\r\n\r\ncontract Farmer{\r\n\r\n    address[] public animals;\r\n\r\n    function addAnimal(address animalAddress) public {\r\n        animals.push(animalAddress);\r\n    }\r\n\r\n    function getAnimal(uint256 index) view public returns (Animal){\r\n        return Animal(animals[index]);\r\n    }\r\n\r\n    function feedByIndex(uint256 index, string calldata food) view public returns(string memory){\r\n        return getAnimal(index).eat(food);\r\n    }\r\n\r\n    function callByIndex(uint256 index) view public returns(string memory){\r\n        return getAnimal(index).speak();\r\n    }\r\n\r\n    function feedByAddress(address animal, string calldata food) view public returns(string memory){\r\n        return Animal(animal).eat(food);\r\n    }\r\n\r\n    function callByAddress(address animal) view public returns(string memory){\r\n        return Animal(animal).speak();\r\n    }\r\n}\r\n\r\n",
  "sourcePath": "C:\\Users\\yarou\\Desktop\\ \\Truffle\\contracts\\AllContracts.sol",
  "compiler": {
    "name": "solc",
    "version": "0.8.2+commit.661d1103.Emscripten.clang"
  },
  "schemaVersion": "3.4.16",
  "updatedAt": "2023-10-22T14:45:06.252Z",
  "networkType": "ethereum",
  "devdoc": {
    "kind": "dev",
    "methods": {},
    "version": 1
  },
  "userdoc": {
    "kind": "user",
    "methods": {},
    "version": 1
  }
}