{
  "contractName": "Wolf",
  "abi": [
    {
      "inputs": [
        {
          "internalType": "string",
          "name": "_name",
          "type": "string"
        }
      ],
      "stateMutability": "nonpayable",
      "type": "constructor"
    },
    {
      "inputs": [
        {
          "internalType": "string",
          "name": "str1",
          "type": "string"
        },
        {
          "internalType": "string",
          "name": "str2",
          "type": "string"
        }
      ],
      "name": "compare",
      "outputs": [
        {
          "internalType": "bool",
          "name": "",
          "type": "bool"
        }
      ],
      "stateMutability": "pure",
      "type": "function",
      "constant": true
    },
    {
      "inputs": [
        {
          "internalType": "string",
          "name": "_food",
          "type": "string"
        }
      ],
      "name": "eat",
      "outputs": [
        {
          "internalType": "string",
          "name": "",
          "type": "string"
        }
      ],
      "stateMutability": "view",
      "type": "function",
      "constant": true
    },
    {
      "inputs": [],
      "name": "sleep",
      "outputs": [
        {
          "internalType": "string",
          "name": "",
          "type": "string"
        }
      ],
      "stateMutability": "pure",
      "type": "function",
      "constant": true
    },
    {
      "inputs": [],
      "name": "speak",
      "outputs": [
        {
          "internalType": "string",
          "name": "",
          "type": "string"
        }
      ],
      "stateMutability": "pure",
      "type": "function",
      "constant": true
    }
  ],
  "bytecode": "0x60806040523480156200001157600080fd5b5060405162000b1438038062000b148339818101604052810190620000379190620001c9565b80806000908051906020019062000050929190620000a7565b50506040518060400160405280600481526020017f6d65617400000000000000000000000000000000000000000000000000000000815250600190805190602001906200009f929190620000a7565b50506200037e565b828054620000b590620002a3565b90600052602060002090601f016020900481019282620000d9576000855562000125565b82601f10620000f457805160ff191683800117855562000125565b8280016001018555821562000125579182015b828111156200012457825182559160200191906001019062000107565b5b50905062000134919062000138565b5090565b5b808211156200015357600081600090555060010162000139565b5090565b60006200016e620001688462000237565b6200020e565b9050828152602081018484840111156200018757600080fd5b620001948482856200026d565b509392505050565b600082601f830112620001ae57600080fd5b8151620001c084826020860162000157565b91505092915050565b600060208284031215620001dc57600080fd5b600082015167ffffffffffffffff811115620001f757600080fd5b62000205848285016200019c565b91505092915050565b60006200021a6200022d565b9050620002288282620002d9565b919050565b6000604051905090565b600067ffffffffffffffff8211156200025557620002546200033e565b5b62000260826200036d565b9050602081019050919050565b60005b838110156200028d57808201518184015260208101905062000270565b838111156200029d576000848401525b50505050565b60006002820490506001821680620002bc57607f821691505b60208210811415620002d357620002d26200030f565b5b50919050565b620002e4826200036d565b810181811067ffffffffffffffff821117156200030657620003056200033e565b5b80604052505050565b7f4e487b7100000000000000000000000000000000000000000000000000000000600052602260045260246000fd5b7f4e487b7100000000000000000000000000000000000000000000000000000000600052604160045260246000fd5b6000601f19601f8301169050919050565b610786806200038e6000396000f3fe608060405234801561001057600080fd5b506004361061004c5760003560e01c8063133a473e146100515780633a96fdd71461006f57806350d853151461009f578063728d9b74146100bd575b600080fd5b6100596100ed565b6040516100669190610548565b60405180910390f35b6100896004803603810190610084919061040e565b61012a565b604051610096919061052d565b60405180910390f35b6100a7610183565b6040516100b49190610548565b60405180910390f35b6100d760048036038101906100d291906103c9565b6101c0565b6040516100e49190610548565b60405180910390f35b60606040518060400160405280600a81526020017f5a7a7a7a7a7a7a7a7a7a00000000000000000000000000000000000000000000815250905090565b60008160405160200161013d9190610516565b60405160208183030381529060405280519060200120836040516020016101649190610516565b6040516020818303038152906040528051906020012014905092915050565b60606040518060400160405280600781526020017f41776f6f6f6f6f00000000000000000000000000000000000000000000000000815250905090565b606061029a83838080601f016020809104026020016040519081016040528093929190818152602001838380828437600081840152601f19601f820116905080830192505050505050506001805461021790610655565b80601f016020809104026020016040519081016040528092919081815260200182805461024390610655565b80156102905780601f1061026557610100808354040283529160200191610290565b820191906000526020600020905b81548152906001019060200180831161027357829003601f168201915b505050505061012a565b6102d9576040517f08c379a00000000000000000000000000000000000000000000000000000000081526004016102d09061056a565b60405180910390fd5b6040518060400160405280600a81526020017f4172617261726172617200000000000000000000000000000000000000000000815250905092915050565b600061032a610325846105af565b61058a565b90508281526020810184848401111561034257600080fd5b61034d848285610613565b509392505050565b60008083601f84011261036757600080fd5b8235905067ffffffffffffffff81111561038057600080fd5b60208301915083600182028301111561039857600080fd5b9250929050565b600082601f8301126103b057600080fd5b81356103c0848260208601610317565b91505092915050565b600080602083850312156103dc57600080fd5b600083013567ffffffffffffffff8111156103f657600080fd5b61040285828601610355565b92509250509250929050565b6000806040838503121561042157600080fd5b600083013567ffffffffffffffff81111561043b57600080fd5b6104478582860161039f565b925050602083013567ffffffffffffffff81111561046457600080fd5b6104708582860161039f565b9150509250929050565b61048381610607565b82525050565b6000610494826105e0565b61049e81856105eb565b93506104ae818560208601610622565b6104b781610716565b840191505092915050565b60006104cd826105e0565b6104d781856105fc565b93506104e7818560208601610622565b80840191505092915050565b60006105006019836105eb565b915061050b82610727565b602082019050919050565b600061052282846104c2565b915081905092915050565b6000602082019050610542600083018461047a565b92915050565b600060208201905081810360008301526105628184610489565b905092915050565b60006020820190508181036000830152610583816104f3565b9050919050565b60006105946105a5565b90506105a08282610687565b919050565b6000604051905090565b600067ffffffffffffffff8211156105ca576105c96106e7565b5b6105d382610716565b9050602081019050919050565b600081519050919050565b600082825260208201905092915050565b600081905092915050565b60008115159050919050565b82818337600083830152505050565b60005b83811015610640578082015181840152602081019050610625565b8381111561064f576000848401525b50505050565b6000600282049050600182168061066d57607f821691505b60208210811415610681576106806106b8565b5b50919050565b61069082610716565b810181811067ffffffffffffffff821117156106af576106ae6106e7565b5b80604052505050565b7f4e487b7100000000000000000000000000000000000000000000000000000000600052602260045260246000fd5b7f4e487b7100000000000000000000000000000000000000000000000000000000600052604160045260246000fd5b6000601f19601f8301169050919050565b7f4361726e69766f72652063616e6e6f742065617420746869730000000000000060008201525056fea2646970667358221220a44528ff0a711be8327ae3b8102e3ad6624bca43b9f0e72ceac8e0816954841664736f6c63430008020033",
  "immutableReferences": {},
  "source": "pragma solidity >0.4.22<0.9.0;\r\n\r\n\r\n    \r\n\r\n\r\nabstract contract Animal{\r\n    \r\n    string name;\r\n    string canEat;\r\n    bool expression;\r\n\r\n    constructor(string memory _name){\r\n        name = _name;\r\n    }\r\n\r\n    function compare(string memory str1, string memory str2) public pure returns(bool){\r\n        return keccak256(abi.encodePacked(str1)) == keccak256(abi.encodePacked(str2));\r\n    }\r\n\r\n    function eat(string calldata _food) virtual view public returns(string memory){\r\n        return \"Animal eats\";\r\n    }\r\n\r\n    function sleep() pure public returns(string memory){\r\n        return \"Zzzzzzzzzz\";\r\n    }\r\n\r\n    function speak() virtual view public returns(string memory){\r\n        return \"Animal speaks\";\r\n    }\r\n    modifier eatsPlant{\r\n        canEat = \"plant\";\r\n        _;\r\n    }\r\n    modifier eatsMeat{\r\n        canEat = \"meat\";\r\n        _;\r\n    }\r\n    modifier cantEatChocolate{\r\n        keccak256(abi.encodePacked(canEat)) != keccak256(abi.encodePacked(\"chocolate\"));\r\n        _;\r\n    }\r\n}\r\n\r\nabstract contract Herbivore is Animal {\r\n\r\n\r\n    function eat(string calldata _food) override virtual view public returns(string memory) {\r\n        require(compare(_food,canEat),\"Herbivore cannot eat this\");\r\n        return \"Nom-Nom\";\r\n    }\r\n    \r\n}\r\n\r\nabstract contract Carnivore is Animal{\r\n\r\n    function eat(string calldata _food) override view public returns(string memory){\r\n        require(compare(_food,canEat), \"Carnivore cannot eat this\");\r\n        return \"Ararararar\";\r\n    }\r\n}\r\n\r\nabstract contract Omnivore is Animal{\r\n\r\n    function eat(string calldata _food) override virtual view public returns(string memory){\r\n        return \"I will eat it\";\r\n    }\r\n}\r\n\r\ncontract Horse is Herbivore{\r\n    string horseName;\r\n    constructor(string memory _name) Animal(_name) eatsPlant{\r\n        horseName = _name;\r\n    }\r\n\r\n    function speak() override pure public returns(string memory){\r\n        return \"Ihohohoho\";\r\n    }\r\n    function getName() view public returns(string memory _name){\r\n        return horseName;\r\n    }\r\n}\r\n\r\ncontract Cow is Herbivore{\r\n\r\n    constructor(string memory _name) Animal(_name)eatsPlant{\r\n    }\r\n\r\n    function speak() override pure public returns(string memory){\r\n        return \"Mooooooow\";\r\n    }\r\n}\r\n\r\ncontract Dog is Omnivore{\r\n    string dogName;\r\n    constructor(string memory _name) Animal(_name) cantEatChocolate{\r\n        dogName = _name;\r\n    }\r\n\r\n    function eat(string calldata _food) pure override public returns(string memory){\r\n        require(!compare(_food,\"chocolate\"),\"Dogs cannot eat chocolate\");\r\n        if(compare(_food,\"meat\") || compare(_food,\"plant\")){\r\n            return \"Dog eats\";\r\n        }\r\n        revert(\"Dogs cannot eat this\");\r\n    }\r\n\r\n    function speak() override pure public returns(string memory){\r\n        return \"Woof\";\r\n    }\r\n\r\n    function getName() view public returns(string memory){\r\n        return dogName;\r\n    }\r\n}\r\n\r\ncontract Pig is Omnivore{\r\n\r\n    constructor(string memory _name) Animal(_name){\r\n    }\r\n\r\n    function speak() override pure public returns(string memory){\r\n        return \"Oink-oink\";\r\n    }\r\n}\r\n\r\ncontract Wolf is Carnivore{\r\n    constructor (string memory _name) Animal(_name)eatsMeat{\r\n    }\r\n\r\n    function speak() override pure public returns(string memory){\r\n        return \"Awooooo\";\r\n    }\r\n}\r\n\r\ncontract Farmer{\r\n\r\n    address[] public animals;\r\n\r\n    function addAnimal(address animalAddress) public {\r\n        animals.push(animalAddress);\r\n    }\r\n\r\n    function getAnimal(uint256 index) view public returns (Animal){\r\n        return Animal(animals[index]);\r\n    }\r\n\r\n    function feedByIndex(uint256 index, string calldata food) view public returns(string memory){\r\n        return getAnimal(index).eat(food);\r\n    }\r\n\r\n    function callByIndex(uint256 index) view public returns(string memory){\r\n        return getAnimal(index).speak();\r\n    }\r\n\r\n    function feedByAddress(address animal, string calldata food) view public returns(string memory){\r\n        return Animal(animal).eat(food);\r\n    }\r\n\r\n    function callByAddress(address animal) view public returns(string memory){\r\n        return Animal(animal).speak();\r\n    }\r\n}\r\n\r\n",
  "sourcePath": "C:\\Users\\yarou\\Desktop\\ \\Truffle\\contracts\\AllContracts.sol",
  "compiler": {
    "name": "solc",
    "version": "0.8.2+commit.661d1103.Emscripten.clang"
  },
  "schemaVersion": "3.4.16",
  "updatedAt": "2023-10-22T14:45:06.268Z",
  "networkType": "ethereum",
  "devdoc": {
    "kind": "dev",
    "methods": {},
    "version": 1
  },
  "userdoc": {
    "kind": "user",
    "methods": {},
    "version": 1
  }
}